{
  "_format": "hh-sol-artifact-1",
  "contractName": "NFTMarketplace",
  "sourceName": "contracts/NFTMarketplace.sol",
  "abi": [
    {
      "inputs": [
        {
          "internalType": "uint256",
          "name": "_nftId",
          "type": "uint256"
        }
      ],
      "name": "buyNFT",
      "outputs": [],
      "stateMutability": "nonpayable",
      "type": "function"
    },
    {
      "inputs": [],
      "name": "getNFTsOnSale",
      "outputs": [
        {
          "components": [
            {
              "internalType": "string",
              "name": "pokeURL",
              "type": "string"
            },
            {
              "internalType": "bool",
              "name": "isOnSale",
              "type": "bool"
            },
            {
              "internalType": "uint256",
              "name": "sellingPrice",
              "type": "uint256"
            },
            {
              "internalType": "address",
              "name": "owner",
              "type": "address"
            },
            {
              "internalType": "uint256",
              "name": "indPos",
              "type": "uint256"
            }
          ],
          "internalType": "struct NFTMarketplace.NFT[]",
          "name": "",
          "type": "tuple[]"
        }
      ],
      "stateMutability": "view",
      "type": "function"
    },
    {
      "inputs": [],
      "name": "getOwnedNFTs",
      "outputs": [
        {
          "components": [
            {
              "internalType": "string",
              "name": "pokeURL",
              "type": "string"
            },
            {
              "internalType": "bool",
              "name": "isOnSale",
              "type": "bool"
            },
            {
              "internalType": "uint256",
              "name": "sellingPrice",
              "type": "uint256"
            },
            {
              "internalType": "address",
              "name": "owner",
              "type": "address"
            },
            {
              "internalType": "uint256",
              "name": "indPos",
              "type": "uint256"
            }
          ],
          "internalType": "struct NFTMarketplace.NFT[]",
          "name": "",
          "type": "tuple[]"
        }
      ],
      "stateMutability": "view",
      "type": "function"
    },
    {
      "inputs": [],
      "name": "isRegistered",
      "outputs": [
        {
          "internalType": "bool",
          "name": "",
          "type": "bool"
        },
        {
          "internalType": "string",
          "name": "",
          "type": "string"
        },
        {
          "internalType": "uint256",
          "name": "",
          "type": "uint256"
        }
      ],
      "stateMutability": "view",
      "type": "function"
    },
    {
      "inputs": [
        {
          "internalType": "string",
          "name": "_pokeURL",
          "type": "string"
        }
      ],
      "name": "mintNFT",
      "outputs": [],
      "stateMutability": "nonpayable",
      "type": "function"
    },
    {
      "inputs": [],
      "name": "nextNFTId",
      "outputs": [
        {
          "internalType": "uint256",
          "name": "",
          "type": "uint256"
        }
      ],
      "stateMutability": "view",
      "type": "function"
    },
    {
      "inputs": [],
      "name": "nextUserId",
      "outputs": [
        {
          "internalType": "uint256",
          "name": "",
          "type": "uint256"
        }
      ],
      "stateMutability": "view",
      "type": "function"
    },
    {
      "inputs": [
        {
          "internalType": "uint256",
          "name": "",
          "type": "uint256"
        }
      ],
      "name": "nfts",
      "outputs": [
        {
          "internalType": "string",
          "name": "pokeURL",
          "type": "string"
        },
        {
          "internalType": "bool",
          "name": "isOnSale",
          "type": "bool"
        },
        {
          "internalType": "uint256",
          "name": "sellingPrice",
          "type": "uint256"
        },
        {
          "internalType": "address",
          "name": "owner",
          "type": "address"
        },
        {
          "internalType": "uint256",
          "name": "indPos",
          "type": "uint256"
        }
      ],
      "stateMutability": "view",
      "type": "function"
    },
    {
      "inputs": [
        {
          "internalType": "string",
          "name": "_name",
          "type": "string"
        }
      ],
      "name": "registerUser",
      "outputs": [],
      "stateMutability": "nonpayable",
      "type": "function"
    },
    {
      "inputs": [
        {
          "internalType": "uint256",
          "name": "_nftId",
          "type": "uint256"
        },
        {
          "internalType": "uint256",
          "name": "_sellingPrice",
          "type": "uint256"
        }
      ],
      "name": "sellNFT",
      "outputs": [],
      "stateMutability": "nonpayable",
      "type": "function"
    },
    {
      "inputs": [
        {
          "internalType": "address",
          "name": "",
          "type": "address"
        }
      ],
      "name": "userAddressesToIds",
      "outputs": [
        {
          "internalType": "uint256",
          "name": "",
          "type": "uint256"
        }
      ],
      "stateMutability": "view",
      "type": "function"
    },
    {
      "inputs": [
        {
          "internalType": "uint256",
          "name": "",
          "type": "uint256"
        }
      ],
      "name": "users",
      "outputs": [
        {
          "internalType": "string",
          "name": "name",
          "type": "string"
        },
        {
          "internalType": "uint256",
          "name": "coins",
          "type": "uint256"
        }
      ],
      "stateMutability": "view",
      "type": "function"
    }
  ],
  "bytecode": "0x608060405234801561001057600080fd5b50611c4a806100206000396000f3fe608060405234801561001057600080fd5b50600436106100b45760003560e01c8063704f1b9411610071578063704f1b94146101a857806391a48a1e146101c45780639594c500146101e0578063a1e6a255146101fe578063c909adc01461021c578063fb37e8831461023a576100b4565b806322366844146100b9578063265aa621146100d95780632d8bd5621461010d578063365b98b21461013d5780634c0eb7d91461016e57806351ed82881461018c575b600080fd5b6100c1610256565b6040516100d0939291906117af565b60405180910390f35b6100f360048036038101906100ee9190611477565b610390565b6040516101049594939291906117ed565b60405180910390f35b6101276004803603810190610122919061140d565b61047b565b60405161013491906118d7565b60405180910390f35b61015760048036038101906101529190611477565b610493565b604051610165929190611847565b60405180910390f35b61017661053f565b604051610183919061178d565b60405180910390f35b6101a660048036038101906101a19190611477565b610848565b005b6101c260048036038101906101bd9190611436565b610d05565b005b6101de60048036038101906101d991906114a0565b610daf565b005b6101e8610e9e565b6040516101f5919061178d565b60405180910390f35b6102066110fc565b60405161021391906118d7565b60405180910390f35b610224611102565b60405161023191906118d7565b60405180910390f35b610254600480360381019061024f9190611436565b611108565b005b60006060600080600160003373ffffffffffffffffffffffffffffffffffffffff1673ffffffffffffffffffffffffffffffffffffffff16815260200190815260200160002054905060008114156102c85760008060405180602001604052806000815250909350935093505061038b565b600160026000838152602001908152602001600020600001600260008481526020019081526020016000206001015481805461030390611acd565b80601f016020809104026020016040519081016040528092919081815260200182805461032f90611acd565b801561037c5780601f106103515761010080835404028352916020019161037c565b820191906000526020600020905b81548152906001019060200180831161035f57829003601f168201915b50505050509150935093509350505b909192565b60006020528060005260406000206000915090508060000180546103b390611acd565b80601f01602080910402602001604051908101604052809291908181526020018280546103df90611acd565b801561042c5780601f106104015761010080835404028352916020019161042c565b820191906000526020600020905b81548152906001019060200180831161040f57829003601f168201915b5050505050908060010160009054906101000a900460ff16908060020154908060030160009054906101000a900473ffffffffffffffffffffffffffffffffffffffff16908060040154905085565b60016020528060005260406000206000915090505481565b60026020528060005260406000206000915090508060000180546104b690611acd565b80601f01602080910402602001604051908101604052809291908181526020018280546104e290611acd565b801561052f5780601f106105045761010080835404028352916020019161052f565b820191906000526020600020905b81548152906001019060200180831161051257829003601f168201915b5050505050908060010154905082565b6060600060026000600160003373ffffffffffffffffffffffffffffffffffffffff1673ffffffffffffffffffffffffffffffffffffffff1681526020019081526020016000205481526020019081526020016000206002018054806020026020016040519081016040528092919081815260200182805480156105e257602002820191906000526020600020905b8154815260200190600101908083116105ce575b505050505090506000815167ffffffffffffffff81111561062c577f4e487b7100000000000000000000000000000000000000000000000000000000600052604160045260246000fd5b60405190808252806020026020018201604052801561066557816020015b610652611291565b81526020019060019003908161064a5790505b50905060005b825181101561083f576000808483815181106106b0577f4e487b7100000000000000000000000000000000000000000000000000000000600052603260045260246000fd5b602002602001015181526020019081526020016000206040518060a00160405290816000820180546106e190611acd565b80601f016020809104026020016040519081016040528092919081815260200182805461070d90611acd565b801561075a5780601f1061072f5761010080835404028352916020019161075a565b820191906000526020600020905b81548152906001019060200180831161073d57829003601f168201915b505050505081526020016001820160009054906101000a900460ff16151515158152602001600282015481526020016003820160009054906101000a900473ffffffffffffffffffffffffffffffffffffffff1673ffffffffffffffffffffffffffffffffffffffff1673ffffffffffffffffffffffffffffffffffffffff168152602001600482015481525050828281518110610821577f4e487b7100000000000000000000000000000000000000000000000000000000600052603260045260246000fd5b6020026020010181905250808061083790611aff565b91505061066b565b50809250505090565b60008082815260200190815260200160002060010160009054906101000a900460ff166108aa576040517f08c379a00000000000000000000000000000000000000000000000000000000081526004016108a190611877565b60405180910390fd5b6000808281526020019081526020016000206002015460026000600160003373ffffffffffffffffffffffffffffffffffffffff1673ffffffffffffffffffffffffffffffffffffffff168152602001908152602001600020548152602001908152602001600020600101541015610957576040517f08c379a000000000000000000000000000000000000000000000000000000000815260040161094e90611897565b60405180910390fd5b60006001600080600085815260200190815260200160002060030160009054906101000a900473ffffffffffffffffffffffffffffffffffffffff1673ffffffffffffffffffffffffffffffffffffffff1673ffffffffffffffffffffffffffffffffffffffff1681526020019081526020016000205490506000600160003373ffffffffffffffffffffffffffffffffffffffff1673ffffffffffffffffffffffffffffffffffffffff16815260200190815260200160002054905060008084815260200190815260200160002060020154600260008381526020019081526020016000206001016000828254610a4f9190611a0f565b9250508190555060008084815260200190815260200160002060020154600260008481526020019081526020016000206001016000828254610a9191906119b9565b92505081905550600060026000848152602001908152602001600020600201905060005b8180549050811015610c245784828281548110610afb577f4e487b7100000000000000000000000000000000000000000000000000000000600052603260045260246000fd5b90600052602060002001541415610c115760018280549050610b1d9190611a0f565b8114610bbf578160018380549050610b359190611a0f565b81548110610b6c577f4e487b7100000000000000000000000000000000000000000000000000000000600052603260045260246000fd5b9060005260206000200154828281548110610bb0577f4e487b7100000000000000000000000000000000000000000000000000000000600052603260045260246000fd5b90600052602060002001819055505b81805480610bf6577f4e487b7100000000000000000000000000000000000000000000000000000000600052603160045260246000fd5b60019003818190600052602060002001600090559055610c24565b8080610c1c90611aff565b915050610ab5565b50600260008381526020019081526020016000206002018490806001815401808255809150506001900390600052602060002001600090919091909150553360008086815260200190815260200160002060030160006101000a81548173ffffffffffffffffffffffffffffffffffffffff021916908373ffffffffffffffffffffffffffffffffffffffff160217905550600080600086815260200190815260200160002060010160006101000a81548160ff02191690831515021790555060008060008681526020019081526020016000206002018190555050505050565b600060036000815480929190610d1a90611aff565b91905055905081600260008381526020019081526020016000206000019080519060200190610d4a9291906112d8565b506064600260008381526020019081526020016000206001018190555080600160003373ffffffffffffffffffffffffffffffffffffffff1673ffffffffffffffffffffffffffffffffffffffff168152602001908152602001600020819055505050565b3373ffffffffffffffffffffffffffffffffffffffff1660008084815260200190815260200160002060030160009054906101000a900473ffffffffffffffffffffffffffffffffffffffff1673ffffffffffffffffffffffffffffffffffffffff1614610e52576040517f08c379a0000000000000000000000000000000000000000000000000000000008152600401610e49906118b7565b60405180910390fd5b600160008084815260200190815260200160002060010160006101000a81548160ff02191690831515021790555080600080848152602001908152602001600020600201819055505050565b6060600060045467ffffffffffffffff811115610ee4577f4e487b7100000000000000000000000000000000000000000000000000000000600052604160045260246000fd5b604051908082528060200260200182016040528015610f1d57816020015b610f0a611291565b815260200190600190039081610f025790505b5090506000805b6004548110156110f05760008082815260200190815260200160002060010160009054906101000a900460ff16156110dd576000808281526020019081526020016000206040518060a0016040529081600082018054610f8390611acd565b80601f0160208091040260200160405190810160405280929190818152602001828054610faf90611acd565b8015610ffc5780601f10610fd157610100808354040283529160200191610ffc565b820191906000526020600020905b815481529060010190602001808311610fdf57829003601f168201915b505050505081526020016001820160009054906101000a900460ff16151515158152602001600282015481526020016003820160009054906101000a900473ffffffffffffffffffffffffffffffffffffffff1673ffffffffffffffffffffffffffffffffffffffff1673ffffffffffffffffffffffffffffffffffffffff1681526020016004820154815250508383815181106110c3577f4e487b7100000000000000000000000000000000000000000000000000000000600052603260045260246000fd5b602002602001018190525081806110d990611aff565b9250505b80806110e890611aff565b915050610f24565b50808252819250505090565b60035481565b60045481565b60006004600081548092919061111d90611aff565b9190505590506040518060a00160405280838152602001600015158152602001600081526020013373ffffffffffffffffffffffffffffffffffffffff1681526020018281525060008083815260200190815260200160002060008201518160000190805190602001906111929291906112d8565b5060208201518160010160006101000a81548160ff0219169083151502179055506040820151816002015560608201518160030160006101000a81548173ffffffffffffffffffffffffffffffffffffffff021916908373ffffffffffffffffffffffffffffffffffffffff1602179055506080820151816004015590505060026000600160003373ffffffffffffffffffffffffffffffffffffffff1673ffffffffffffffffffffffffffffffffffffffff1681526020019081526020016000205481526020019081526020016000206002018190806001815401808255809150506001900390600052602060002001600090919091909150555050565b6040518060a001604052806060815260200160001515815260200160008152602001600073ffffffffffffffffffffffffffffffffffffffff168152602001600081525090565b8280546112e490611acd565b90600052602060002090601f016020900481019282611306576000855561134d565b82601f1061131f57805160ff191683800117855561134d565b8280016001018555821561134d579182015b8281111561134c578251825591602001919060010190611331565b5b50905061135a919061135e565b5090565b5b8082111561137757600081600090555060010161135f565b5090565b600061138e61138984611923565b6118f2565b9050828152602081018484840111156113a657600080fd5b6113b1848285611a8b565b509392505050565b6000813590506113c881611be6565b92915050565b600082601f8301126113df57600080fd5b81356113ef84826020860161137b565b91505092915050565b60008135905061140781611bfd565b92915050565b60006020828403121561141f57600080fd5b600061142d848285016113b9565b91505092915050565b60006020828403121561144857600080fd5b600082013567ffffffffffffffff81111561146257600080fd5b61146e848285016113ce565b91505092915050565b60006020828403121561148957600080fd5b6000611497848285016113f8565b91505092915050565b600080604083850312156114b357600080fd5b60006114c1858286016113f8565b92505060206114d2858286016113f8565b9150509250929050565b60006114e883836116f9565b905092915050565b6114f981611a43565b82525050565b61150881611a43565b82525050565b600061151982611963565b6115238185611986565b93508360208202850161153585611953565b8060005b85811015611571578484038952815161155285826114dc565b945061155d83611979565b925060208a01995050600181019050611539565b50829750879550505050505092915050565b61158c81611a55565b82525050565b61159b81611a55565b82525050565b60006115ac8261196e565b6115b68185611997565b93506115c6818560208601611a9a565b6115cf81611bd5565b840191505092915050565b60006115e58261196e565b6115ef81856119a8565b93506115ff818560208601611a9a565b61160881611bd5565b840191505092915050565b60006116206012836119a8565b91507f4e4654206973206e6f74206f6e2073616c6500000000000000000000000000006000830152602082019050919050565b60006116606012836119a8565b91507f496e73756666696369656e742066756e647300000000000000000000000000006000830152602082019050919050565b60006116a06021836119a8565b91507f596f7520617265206e6f7420746865206f776e6572206f662074686973204e4660008301527f54000000000000000000000000000000000000000000000000000000000000006020830152604082019050919050565b600060a083016000830151848203600086015261171682826115a1565b915050602083015161172b6020860182611583565b50604083015161173e604086018261176f565b50606083015161175160608601826114f0565b506080830151611764608086018261176f565b508091505092915050565b61177881611a81565b82525050565b61178781611a81565b82525050565b600060208201905081810360008301526117a7818461150e565b905092915050565b60006060820190506117c46000830186611592565b81810360208301526117d681856115da565b90506117e5604083018461177e565b949350505050565b600060a082019050818103600083015261180781886115da565b90506118166020830187611592565b611823604083018661177e565b61183060608301856114ff565b61183d608083018461177e565b9695505050505050565b6000604082019050818103600083015261186181856115da565b9050611870602083018461177e565b9392505050565b6000602082019050818103600083015261189081611613565b9050919050565b600060208201905081810360008301526118b081611653565b9050919050565b600060208201905081810360008301526118d081611693565b9050919050565b60006020820190506118ec600083018461177e565b92915050565b6000604051905081810181811067ffffffffffffffff8211171561191957611918611ba6565b5b8060405250919050565b600067ffffffffffffffff82111561193e5761193d611ba6565b5b601f19601f8301169050602081019050919050565b6000819050602082019050919050565b600081519050919050565b600081519050919050565b6000602082019050919050565b600082825260208201905092915050565b600082825260208201905092915050565b600082825260208201905092915050565b60006119c482611a81565b91506119cf83611a81565b9250827fffffffffffffffffffffffffffffffffffffffffffffffffffffffffffffffff03821115611a0457611a03611b48565b5b828201905092915050565b6000611a1a82611a81565b9150611a2583611a81565b925082821015611a3857611a37611b48565b5b828203905092915050565b6000611a4e82611a61565b9050919050565b60008115159050919050565b600073ffffffffffffffffffffffffffffffffffffffff82169050919050565b6000819050919050565b82818337600083830152505050565b60005b83811015611ab8578082015181840152602081019050611a9d565b83811115611ac7576000848401525b50505050565b60006002820490506001821680611ae557607f821691505b60208210811415611af957611af8611b77565b5b50919050565b6000611b0a82611a81565b91507fffffffffffffffffffffffffffffffffffffffffffffffffffffffffffffffff821415611b3d57611b3c611b48565b5b600182019050919050565b7f4e487b7100000000000000000000000000000000000000000000000000000000600052601160045260246000fd5b7f4e487b7100000000000000000000000000000000000000000000000000000000600052602260045260246000fd5b7f4e487b7100000000000000000000000000000000000000000000000000000000600052604160045260246000fd5b6000601f19601f8301169050919050565b611bef81611a43565b8114611bfa57600080fd5b50565b611c0681611a81565b8114611c1157600080fd5b5056fea26469706673582212203278eb5dd532ea84feaf37ac9ee774bbe449a02cff7345cac308b1f3bee699ca64736f6c63430008000033",
  "linkReferences": {},
  "deployedLinkReferences": {}
}